S013000054696D65202D2044656D6F2E7372656390
S11300000C94FE000C9412010C9412010C94120135
S11300100C9412010C9412010C9412010C94120110
S11300200C9412010C9412010C9412010C94120100
S11300300C9412010C9412010C946A010C94120198
S11300400C9412010C9412010C9412010C941201E0
S11300500C9412010C9412010C9412010C941201D0
S11300600C9412010C9412010C9412010C941201C0
S11300700C9412010C9412010C9412010C941201B0
S11300800C9412010C9412010C9412010C941201A0
S11300900C9412010C9412010C9412010C94120190
S11300A00C9412010C9412010C9412010C94120180
S11300B00C9412010C9412010C9412010C94120170
S11300C00C9412010C9412010C9412010C94120160
S11300D00C9412010C9412010C9412010C94120150
S11300E00C9412010C9412010C9412010C94120140
S11300F00C9412010C9412010C9412010C94120130
S11301000C9412010C9412010C9412010C9412011F
S11301100C9412010C9412010C9412010C9412010F
S11301200C9412010C9412010C9412010C941201FF
S11301300C9412010C9412010C9412010C941201EF
S11301400C9412010C9412010C9412010C941201DF
S11301500C9412010C9412010C9412010C941201CF
S11301600C9412010C9412010C9412010C941201BF
S11301700C9412010C9412010C9412010C941201AF
S11301800C9412010C9412010C9412010C9412019F
S11301900C9412010C9412010C9412010C9412018F
S11301A00C9412010C9412010C9412010C9412017F
S11301B00C9412010C9412010C9412010C9412016F
S11301C00C9412010C9412010C9412010C9412015F
S11301D00C9412010C9412010C9412010C9412014F
S11301E00C9412010C9412010C9412010C9412013F
S11301F00C9412010C9412010C94120111241FBED0
S1130200CFEFCDBFDFE5DEBF00E00CBF20E2A0E012
S1130210B0E201C01D92A930B207E1F70E94AE011D
S11302200C9403020C940000FC012081211127C0CE
S113023021E02083F89481E08823F1F0E0E0F8E005
S11302408081807F84608083E1E0F8E08081887F22
S11302508083E4E0F8E080818E7F82608083E6E042
S1130260F8E080818D7F81608083E2EAF0E0808124
S11302708160808380E0E0CF789481E0089580E01D
S11302800895FC018FB7F89491E0992331F04181EE
S113029052816381748190E0F8CF8FBFCB01BA01A2
S11302A008950E94410128EE33E040E050E00E94AE
S11302B0E101CA01B9010895FC01418152816381C0
S11302C07481405E5F4F6F4F7F4F418352836383DE
S11302D0748308951F920F920FB60F9211240BB6D8
S11302E00F922F933F934F935F936F937F938F93CB
S11302F09F93AF93BF93EF93FF9380E090E20E94AC
S11303005C01FF91EF91BF91AF919F918F917F918C
S11303106F915F914F913F912F910F900BBE0F9072
S11303200FBE0F901F901895E0E5F0E08081826089
S113033080838091510081FFFCCFE0E5F0E088E804
S113034085838081806180838091510084FFFCCF0C
S113035088ED84BF84E08093400008950E94940156
S113036080E090E20E941401E0E4F6E08081816084
S1130370808380E090E20E94510100910520109159
S1130380062020910720309108206B017C01C01ABF
S1130390D10AE20AF30A9701860104361105210500
S11303A0310538F3E0E4F6E0348121E023272483A7
S11303B06093052070930620809307209093082073
S11303C0D8CFA1E21A2EAA1BBB1BFD010DC0AA1F88
S11303D0BB1FEE1FFF1FA217B307E407F50720F0AA
S11303E0A21BB30BE40BF50B661F771F881F991F25
S11303F01A9469F760957095809590959B01AC016E
S10D0400BD01CF010895F894FFCF69
S9030000FC
